{
  "_format": "hh-sol-artifact-1",
  "contractName": "Funding",
  "sourceName": "contracts/Funding.sol",
  "abi": [
    {
      "inputs": [
        {
          "internalType": "uint256",
          "name": "",
          "type": "uint256"
        }
      ],
      "name": "allCampaigns",
      "outputs": [
        {
          "internalType": "uint256",
          "name": "id",
          "type": "uint256"
        },
        {
          "internalType": "uint256",
          "name": "amount",
          "type": "uint256"
        },
        {
          "internalType": "uint256",
          "name": "goal",
          "type": "uint256"
        },
        {
          "internalType": "uint256",
          "name": "deadline",
          "type": "uint256"
        },
        {
          "internalType": "uint256",
          "name": "start",
          "type": "uint256"
        },
        {
          "internalType": "uint256",
          "name": "end",
          "type": "uint256"
        },
        {
          "internalType": "string",
          "name": "name",
          "type": "string"
        },
        {
          "internalType": "address",
          "name": "creator",
          "type": "address"
        }
      ],
      "stateMutability": "view",
      "type": "function"
    },
    {
      "inputs": [
        {
          "internalType": "uint256",
          "name": "_goal",
          "type": "uint256"
        },
        {
          "internalType": "uint256",
          "name": "_deadline",
          "type": "uint256"
        },
        {
          "internalType": "string",
          "name": "_name",
          "type": "string"
        }
      ],
      "name": "createCampaign",
      "outputs": [],
      "stateMutability": "payable",
      "type": "function"
    },
    {
      "inputs": [
        {
          "internalType": "uint256",
          "name": "id",
          "type": "uint256"
        }
      ],
      "name": "deleteCampaign",
      "outputs": [],
      "stateMutability": "nonpayable",
      "type": "function"
    },
    {
      "inputs": [
        {
          "internalType": "uint256",
          "name": "id",
          "type": "uint256"
        }
      ],
      "name": "fund",
      "outputs": [],
      "stateMutability": "payable",
      "type": "function"
    },
    {
      "inputs": [],
      "name": "getAllCampaigns",
      "outputs": [
        {
          "components": [
            {
              "internalType": "uint256",
              "name": "id",
              "type": "uint256"
            },
            {
              "internalType": "uint256",
              "name": "amount",
              "type": "uint256"
            },
            {
              "internalType": "uint256",
              "name": "goal",
              "type": "uint256"
            },
            {
              "internalType": "uint256",
              "name": "deadline",
              "type": "uint256"
            },
            {
              "internalType": "uint256",
              "name": "start",
              "type": "uint256"
            },
            {
              "internalType": "uint256",
              "name": "end",
              "type": "uint256"
            },
            {
              "internalType": "string",
              "name": "name",
              "type": "string"
            },
            {
              "internalType": "address",
              "name": "creator",
              "type": "address"
            }
          ],
          "internalType": "struct Funding.Campaign[]",
          "name": "",
          "type": "tuple[]"
        }
      ],
      "stateMutability": "view",
      "type": "function"
    },
    {
      "inputs": [
        {
          "internalType": "uint256",
          "name": "id",
          "type": "uint256"
        }
      ],
      "name": "getCampaignDetails",
      "outputs": [
        {
          "components": [
            {
              "internalType": "uint256",
              "name": "id",
              "type": "uint256"
            },
            {
              "internalType": "uint256",
              "name": "amount",
              "type": "uint256"
            },
            {
              "internalType": "uint256",
              "name": "goal",
              "type": "uint256"
            },
            {
              "internalType": "uint256",
              "name": "deadline",
              "type": "uint256"
            },
            {
              "internalType": "uint256",
              "name": "start",
              "type": "uint256"
            },
            {
              "internalType": "uint256",
              "name": "end",
              "type": "uint256"
            },
            {
              "internalType": "string",
              "name": "name",
              "type": "string"
            },
            {
              "internalType": "address",
              "name": "creator",
              "type": "address"
            }
          ],
          "internalType": "struct Funding.Campaign",
          "name": "",
          "type": "tuple"
        }
      ],
      "stateMutability": "view",
      "type": "function"
    }
  ],
  "bytecode": "0x608060405234801561001057600080fd5b5061172f806100206000396000f3fe6080604052600436106100555760003560e01c8063759701931461005a57806386cdf6041461008357806391cbf44e146100ae578063a509f4d1146100ca578063ca1d209d1461010e578063d993de621461012a575b600080fd5b34801561006657600080fd5b50610081600480360381019061007c9190610aba565b610167565b005b34801561008f57600080fd5b506100986103c4565b6040516100a59190610d39565b60405180910390f35b6100c860048036038101906100c39190610e90565b610548565b005b3480156100d657600080fd5b506100f160048036038101906100ec9190610aba565b61067a565b604051610105989796959493929190610f67565b60405180910390f35b61012860048036038101906101239190610aba565b61077a565b005b34801561013657600080fd5b50610151600480360381019061014c9190610aba565b610857565b60405161015e919061109c565b60405180910390f35b600080828154811061017c5761017b6110be565b5b906000526020600020906008020190508060070160009054906101000a900473ffffffffffffffffffffffffffffffffffffffff1673ffffffffffffffffffffffffffffffffffffffff163373ffffffffffffffffffffffffffffffffffffffff161461021e576040517f08c379a000000000000000000000000000000000000000000000000000000000815260040161021590611139565b60405180910390fd5b600060016000805490506102329190611188565b81548110610243576102426110be565b5b906000526020600020906008020160008381548110610265576102646110be565b5b9060005260206000209060080201600082015481600001556001820154816001015560028201548160020155600382015481600301556004820154816004015560058201548160050155600682018160060190816102c391906113de565b506007820160009054906101000a900473ffffffffffffffffffffffffffffffffffffffff168160070160006101000a81548173ffffffffffffffffffffffffffffffffffffffff021916908373ffffffffffffffffffffffffffffffffffffffff16021790555090505060008054806103405761033f6114c6565b5b60019003818190600052602060002090600802016000808201600090556001820160009055600282016000905560038201600090556004820160009055600582016000905560068201600061039591906109b8565b6007820160006101000a81549073ffffffffffffffffffffffffffffffffffffffff0219169055505090555050565b60606000805480602002602001604051908101604052809291908181526020016000905b8282101561053f578382906000526020600020906008020160405180610100016040529081600082015481526020016001820154815260200160028201548152602001600382015481526020016004820154815260200160058201548152602001600682018054610458906111eb565b80601f0160208091040260200160405190810160405280929190818152602001828054610484906111eb565b80156104d15780601f106104a6576101008083540402835291602001916104d1565b820191906000526020600020905b8154815290600101906020018083116104b457829003601f168201915b505050505081526020016007820160009054906101000a900473ffffffffffffffffffffffffffffffffffffffff1673ffffffffffffffffffffffffffffffffffffffff1673ffffffffffffffffffffffffffffffffffffffff1681525050815260200190600101906103e8565b50505050905090565b6000604051806101000160405280600080549050815260200160008152602001858152602001848152602001428152602001844261058691906114f5565b81526020018381526020013373ffffffffffffffffffffffffffffffffffffffff1681525090506000819080600181540180825580915050600190039060005260206000209060080201600090919091909150600082015181600001556020820151816001015560408201518160020155606082015181600301556080820151816004015560a0820151816005015560c082015181600601908161062a9190611529565b5060e08201518160070160006101000a81548173ffffffffffffffffffffffffffffffffffffffff021916908373ffffffffffffffffffffffffffffffffffffffff160217905550505050505050565b6000818154811061068a57600080fd5b90600052602060002090600802016000915090508060000154908060010154908060020154908060030154908060040154908060050154908060060180546106d1906111eb565b80601f01602080910402602001604051908101604052809291908181526020018280546106fd906111eb565b801561074a5780601f1061071f5761010080835404028352916020019161074a565b820191906000526020600020905b81548152906001019060200180831161072d57829003601f168201915b5050505050908060070160009054906101000a900473ffffffffffffffffffffffffffffffffffffffff16905088565b600080828154811061078f5761078e6110be565b5b90600052602060002090600802019050600034116107e2576040517f08c379a00000000000000000000000000000000000000000000000000000000081526004016107d99061166d565b60405180910390fd5b80600201543482600101546107f791906114f5565b1115610838576040517f08c379a000000000000000000000000000000000000000000000000000000000815260040161082f906116d9565b60405180910390fd5b3481600101600082825461084c91906114f5565b925050819055505050565b61085f6109f8565b60008281548110610873576108726110be565b5b9060005260206000209060080201604051806101000160405290816000820154815260200160018201548152602001600282015481526020016003820154815260200160048201548152602001600582015481526020016006820180546108d9906111eb565b80601f0160208091040260200160405190810160405280929190818152602001828054610905906111eb565b80156109525780601f1061092757610100808354040283529160200191610952565b820191906000526020600020905b81548152906001019060200180831161093557829003601f168201915b505050505081526020016007820160009054906101000a900473ffffffffffffffffffffffffffffffffffffffff1673ffffffffffffffffffffffffffffffffffffffff1673ffffffffffffffffffffffffffffffffffffffff16815250509050919050565b5080546109c4906111eb565b6000825580601f106109d657506109f5565b601f0160209004906000526020600020908101906109f49190610a53565b5b50565b60405180610100016040528060008152602001600081526020016000815260200160008152602001600081526020016000815260200160608152602001600073ffffffffffffffffffffffffffffffffffffffff1681525090565b5b80821115610a6c576000816000905550600101610a54565b5090565b6000604051905090565b600080fd5b600080fd5b6000819050919050565b610a9781610a84565b8114610aa257600080fd5b50565b600081359050610ab481610a8e565b92915050565b600060208284031215610ad057610acf610a7a565b5b6000610ade84828501610aa5565b91505092915050565b600081519050919050565b600082825260208201905092915050565b6000819050602082019050919050565b610b1c81610a84565b82525050565b600081519050919050565b600082825260208201905092915050565b60005b83811015610b5c578082015181840152602081019050610b41565b60008484015250505050565b6000601f19601f8301169050919050565b6000610b8482610b22565b610b8e8185610b2d565b9350610b9e818560208601610b3e565b610ba781610b68565b840191505092915050565b600073ffffffffffffffffffffffffffffffffffffffff82169050919050565b6000610bdd82610bb2565b9050919050565b610bed81610bd2565b82525050565b600061010083016000830151610c0c6000860182610b13565b506020830151610c1f6020860182610b13565b506040830151610c326040860182610b13565b506060830151610c456060860182610b13565b506080830151610c586080860182610b13565b5060a0830151610c6b60a0860182610b13565b5060c083015184820360c0860152610c838282610b79565b91505060e0830151610c9860e0860182610be4565b508091505092915050565b6000610caf8383610bf3565b905092915050565b6000602082019050919050565b6000610ccf82610ae7565b610cd98185610af2565b935083602082028501610ceb85610b03565b8060005b85811015610d275784840389528151610d088582610ca3565b9450610d1383610cb7565b925060208a01995050600181019050610cef565b50829750879550505050505092915050565b60006020820190508181036000830152610d538184610cc4565b905092915050565b600080fd5b600080fd5b7f4e487b7100000000000000000000000000000000000000000000000000000000600052604160045260246000fd5b610d9d82610b68565b810181811067ffffffffffffffff82111715610dbc57610dbb610d65565b5b80604052505050565b6000610dcf610a70565b9050610ddb8282610d94565b919050565b600067ffffffffffffffff821115610dfb57610dfa610d65565b5b610e0482610b68565b9050602081019050919050565b82818337600083830152505050565b6000610e33610e2e84610de0565b610dc5565b905082815260208101848484011115610e4f57610e4e610d60565b5b610e5a848285610e11565b509392505050565b600082601f830112610e7757610e76610d5b565b5b8135610e87848260208601610e20565b91505092915050565b600080600060608486031215610ea957610ea8610a7a565b5b6000610eb786828701610aa5565b9350506020610ec886828701610aa5565b925050604084013567ffffffffffffffff811115610ee957610ee8610a7f565b5b610ef586828701610e62565b9150509250925092565b610f0881610a84565b82525050565b600082825260208201905092915050565b6000610f2a82610b22565b610f348185610f0e565b9350610f44818560208601610b3e565b610f4d81610b68565b840191505092915050565b610f6181610bd2565b82525050565b600061010082019050610f7d600083018b610eff565b610f8a602083018a610eff565b610f976040830189610eff565b610fa46060830188610eff565b610fb16080830187610eff565b610fbe60a0830186610eff565b81810360c0830152610fd08185610f1f565b9050610fdf60e0830184610f58565b9998505050505050505050565b6000610100830160008301516110056000860182610b13565b5060208301516110186020860182610b13565b50604083015161102b6040860182610b13565b50606083015161103e6060860182610b13565b5060808301516110516080860182610b13565b5060a083015161106460a0860182610b13565b5060c083015184820360c086015261107c8282610b79565b91505060e083015161109160e0860182610be4565b508091505092915050565b600060208201905081810360008301526110b68184610fec565b905092915050565b7f4e487b7100000000000000000000000000000000000000000000000000000000600052603260045260246000fd5b7f4f6e6c792063726561746f722063616e2064656c6574652063616d706169676e600082015250565b6000611123602083610f0e565b915061112e826110ed565b602082019050919050565b6000602082019050818103600083015261115281611116565b9050919050565b7f4e487b7100000000000000000000000000000000000000000000000000000000600052601160045260246000fd5b600061119382610a84565b915061119e83610a84565b92508282039050818111156111b6576111b5611159565b5b92915050565b7f4e487b7100000000000000000000000000000000000000000000000000000000600052602260045260246000fd5b6000600282049050600182168061120357607f821691505b602082108103611216576112156111bc565b5b50919050565b60008154905061122b816111eb565b9050919050565b60008190508160005260206000209050919050565b60006020601f8301049050919050565b600082821b905092915050565b6000600883026112947fffffffffffffffffffffffffffffffffffffffffffffffffffffffffffffffff82611257565b61129e8683611257565b95508019841693508086168417925050509392505050565b6000819050919050565b60006112db6112d66112d184610a84565b6112b6565b610a84565b9050919050565b6000819050919050565b6112f5836112c0565b611309611301826112e2565b848454611264565b825550505050565b600090565b61131e611311565b6113298184846112ec565b505050565b5b8181101561134d57611342600082611316565b60018101905061132f565b5050565b601f8211156113925761136381611232565b61136c84611247565b8101602085101561137b578190505b61138f61138785611247565b83018261132e565b50505b505050565b600082821c905092915050565b60006113b560001984600802611397565b1980831691505092915050565b60006113ce83836113a4565b9150826002028217905092915050565b8181036113ec5750506114c4565b6113f58261121c565b67ffffffffffffffff81111561140e5761140d610d65565b5b61141882546111eb565b611423828285611351565b6000601f8311600181146114525760008415611440578287015490505b61144a85826113c2565b8655506114bd565b601f19841661146087611232565b965061146b86611232565b60005b828110156114935784890154825560018201915060018501945060208101905061146e565b868310156114b057848901546114ac601f8916826113a4565b8355505b6001600288020188555050505b5050505050505b565b7f4e487b7100000000000000000000000000000000000000000000000000000000600052603160045260246000fd5b600061150082610a84565b915061150b83610a84565b925082820190508082111561152357611522611159565b5b92915050565b61153282610b22565b67ffffffffffffffff81111561154b5761154a610d65565b5b61155582546111eb565b611560828285611351565b600060209050601f8311600181146115935760008415611581578287015190505b61158b85826113c2565b8655506115f3565b601f1984166115a186611232565b60005b828110156115c9578489015182556001820191506020850194506020810190506115a4565b868310156115e657848901516115e2601f8916826113a4565b8355505b6001600288020188555050505b505050505050565b7f46756e64696e6720616d6f756e74206d7573742062652067726561746572207460008201527f68616e2030000000000000000000000000000000000000000000000000000000602082015250565b6000611657602583610f0e565b9150611662826115fb565b604082019050919050565b600060208201905081810360008301526116868161164a565b9050919050565b7f43616d706169676e20676f616c20657863656564656400000000000000000000600082015250565b60006116c3601683610f0e565b91506116ce8261168d565b602082019050919050565b600060208201905081810360008301526116f2816116b6565b905091905056fea2646970667358221220ae6f03249434f6a2ee565ff02d4080efdec50ea5c82d947161c5ac18e223a63a64736f6c63430008140033",
  "linkReferences": {},
  "deployedLinkReferences": {}
}