{
  "_format": "hh-sol-artifact-1",
  "contractName": "Funding",
  "sourceName": "contracts/Funding.sol",
  "abi": [
    {
      "inputs": [
        {
          "internalType": "uint256",
          "name": "",
          "type": "uint256"
        }
      ],
      "name": "allCampaigns",
      "outputs": [
        {
          "internalType": "uint256",
          "name": "id",
          "type": "uint256"
        },
        {
          "internalType": "uint256",
          "name": "amount",
          "type": "uint256"
        },
        {
          "internalType": "uint256",
          "name": "goal",
          "type": "uint256"
        },
        {
          "internalType": "uint256",
          "name": "deadline",
          "type": "uint256"
        },
        {
          "internalType": "uint256",
          "name": "start",
          "type": "uint256"
        },
        {
          "internalType": "uint256",
          "name": "end",
          "type": "uint256"
        },
        {
          "internalType": "string",
          "name": "name",
          "type": "string"
        },
        {
          "internalType": "string",
          "name": "description",
          "type": "string"
        },
        {
          "internalType": "address",
          "name": "creator",
          "type": "address"
        }
      ],
      "stateMutability": "view",
      "type": "function"
    },
    {
      "inputs": [
        {
          "internalType": "uint256",
          "name": "_goal",
          "type": "uint256"
        },
        {
          "internalType": "uint256",
          "name": "_deadline",
          "type": "uint256"
        },
        {
          "internalType": "string",
          "name": "_name",
          "type": "string"
        },
        {
          "internalType": "string",
          "name": "_description",
          "type": "string"
        }
      ],
      "name": "createCampaign",
      "outputs": [],
      "stateMutability": "payable",
      "type": "function"
    },
    {
      "inputs": [
        {
          "internalType": "uint256",
          "name": "id",
          "type": "uint256"
        }
      ],
      "name": "deleteCampaign",
      "outputs": [],
      "stateMutability": "nonpayable",
      "type": "function"
    },
    {
      "inputs": [
        {
          "internalType": "uint256",
          "name": "id",
          "type": "uint256"
        }
      ],
      "name": "fund",
      "outputs": [],
      "stateMutability": "payable",
      "type": "function"
    },
    {
      "inputs": [],
      "name": "getAllCampaigns",
      "outputs": [
        {
          "components": [
            {
              "internalType": "uint256",
              "name": "id",
              "type": "uint256"
            },
            {
              "internalType": "uint256",
              "name": "amount",
              "type": "uint256"
            },
            {
              "internalType": "uint256",
              "name": "goal",
              "type": "uint256"
            },
            {
              "internalType": "uint256",
              "name": "deadline",
              "type": "uint256"
            },
            {
              "internalType": "uint256",
              "name": "start",
              "type": "uint256"
            },
            {
              "internalType": "uint256",
              "name": "end",
              "type": "uint256"
            },
            {
              "internalType": "string",
              "name": "name",
              "type": "string"
            },
            {
              "internalType": "string",
              "name": "description",
              "type": "string"
            },
            {
              "internalType": "address",
              "name": "creator",
              "type": "address"
            },
            {
              "internalType": "address[]",
              "name": "funders",
              "type": "address[]"
            }
          ],
          "internalType": "struct Funding.Campaign[]",
          "name": "",
          "type": "tuple[]"
        }
      ],
      "stateMutability": "view",
      "type": "function"
    },
    {
      "inputs": [
        {
          "internalType": "uint256",
          "name": "id",
          "type": "uint256"
        }
      ],
      "name": "getCampaignDetails",
      "outputs": [
        {
          "components": [
            {
              "internalType": "uint256",
              "name": "id",
              "type": "uint256"
            },
            {
              "internalType": "uint256",
              "name": "amount",
              "type": "uint256"
            },
            {
              "internalType": "uint256",
              "name": "goal",
              "type": "uint256"
            },
            {
              "internalType": "uint256",
              "name": "deadline",
              "type": "uint256"
            },
            {
              "internalType": "uint256",
              "name": "start",
              "type": "uint256"
            },
            {
              "internalType": "uint256",
              "name": "end",
              "type": "uint256"
            },
            {
              "internalType": "string",
              "name": "name",
              "type": "string"
            },
            {
              "internalType": "string",
              "name": "description",
              "type": "string"
            },
            {
              "internalType": "address",
              "name": "creator",
              "type": "address"
            },
            {
              "internalType": "address[]",
              "name": "funders",
              "type": "address[]"
            }
          ],
          "internalType": "struct Funding.Campaign",
          "name": "",
          "type": "tuple"
        }
      ],
      "stateMutability": "view",
      "type": "function"
    }
  ],
  "bytecode": "0x608060405234801561001057600080fd5b50611daa806100206000396000f3fe6080604052600436106100555760003560e01c8063759701931461005a57806386cdf60414610083578063a509f4d1146100ae578063b63e0eb0146100f3578063ca1d209d1461010f578063d993de621461012b575b600080fd5b34801561006657600080fd5b50610081600480360381019061007c9190610fd0565b610168565b005b34801561008f57600080fd5b50610098610411565b6040516100a59190611336565b60405180910390f35b3480156100ba57600080fd5b506100d560048036038101906100d09190610fd0565b6106b5565b6040516100ea999897969594939291906113c0565b60405180910390f35b61010d60048036038101906101089190611590565b610843565b005b61012960048036038101906101249190610fd0565b610a00565b005b34801561013757600080fd5b50610152600480360381019061014d9190610fd0565b610b42565b60405161015f9190611717565b60405180910390f35b600080828154811061017d5761017c611739565b5b90600052602060002090600a020190508060080160009054906101000a900473ffffffffffffffffffffffffffffffffffffffff1673ffffffffffffffffffffffffffffffffffffffff163373ffffffffffffffffffffffffffffffffffffffff161461021f576040517f08c379a0000000000000000000000000000000000000000000000000000000008152600401610216906117b4565b60405180910390fd5b600060016000805490506102339190611803565b8154811061024457610243611739565b5b90600052602060002090600a02016000838154811061026657610265611739565b5b90600052602060002090600a0201600082015481600001556001820154816001015560028201548160020155600382015481600301556004820154816004015560058201548160050155600682018160060190816102c49190611a59565b50600782018160070190816102d99190611a59565b506008820160009054906101000a900473ffffffffffffffffffffffffffffffffffffffff168160080160006101000a81548173ffffffffffffffffffffffffffffffffffffffff021916908373ffffffffffffffffffffffffffffffffffffffff1602179055506009820181600901908054610357929190610dc3565b50905050600080548061036d5761036c611b41565b5b60019003818190600052602060002090600a0201600080820160009055600182016000905560028201600090556003820160009055600482016000905560058201600090556006820160006103c29190610e15565b6007820160006103d29190610e15565b6008820160006101000a81549073ffffffffffffffffffffffffffffffffffffffff02191690556009820160006104099190610e55565b505090555050565b60606000805480602002602001604051908101604052809291908181526020016000905b828210156106ac57838290600052602060002090600a0201604051806101400160405290816000820154815260200160018201548152602001600282015481526020016003820154815260200160048201548152602001600582015481526020016006820180546104a590611866565b80601f01602080910402602001604051908101604052809291908181526020018280546104d190611866565b801561051e5780601f106104f35761010080835404028352916020019161051e565b820191906000526020600020905b81548152906001019060200180831161050157829003601f168201915b5050505050815260200160078201805461053790611866565b80601f016020809104026020016040519081016040528092919081815260200182805461056390611866565b80156105b05780601f10610585576101008083540402835291602001916105b0565b820191906000526020600020905b81548152906001019060200180831161059357829003601f168201915b505050505081526020016008820160009054906101000a900473ffffffffffffffffffffffffffffffffffffffff1673ffffffffffffffffffffffffffffffffffffffff1673ffffffffffffffffffffffffffffffffffffffff1681526020016009820180548060200260200160405190810160405280929190818152602001828054801561069457602002820191906000526020600020905b8160009054906101000a900473ffffffffffffffffffffffffffffffffffffffff1673ffffffffffffffffffffffffffffffffffffffff168152602001906001019080831161064a575b50505050508152505081526020019060010190610435565b50505050905090565b600081815481106106c557600080fd5b90600052602060002090600a020160009150905080600001549080600101549080600201549080600301549080600401549080600501549080600601805461070c90611866565b80601f016020809104026020016040519081016040528092919081815260200182805461073890611866565b80156107855780601f1061075a57610100808354040283529160200191610785565b820191906000526020600020905b81548152906001019060200180831161076857829003601f168201915b50505050509080600701805461079a90611866565b80601f01602080910402602001604051908101604052809291908181526020018280546107c690611866565b80156108135780601f106107e857610100808354040283529160200191610813565b820191906000526020600020905b8154815290600101906020018083116107f657829003601f168201915b5050505050908060080160009054906101000a900473ffffffffffffffffffffffffffffffffffffffff16905089565b600060405180610140016040528060008054905081526020016000815260200186815260200185815260200142815260200185426108819190611b70565b81526020018481526020018381526020013373ffffffffffffffffffffffffffffffffffffffff168152602001600067ffffffffffffffff8111156108c9576108c8611465565b5b6040519080825280602002602001820160405280156108f75781602001602082028036833780820191505090505b50815250905060008190806001815401808255809150506001900390600052602060002090600a0201600090919091909150600082015181600001556020820151816001015560408201518160020155606082015181600301556080820151816004015560a0820151816005015560c082015181600601908161097a9190611ba4565b5060e08201518160070190816109909190611ba4565b506101008201518160080160006101000a81548173ffffffffffffffffffffffffffffffffffffffff021916908373ffffffffffffffffffffffffffffffffffffffff1602179055506101208201518160090190805190602001906109f6929190610e76565b5050505050505050565b6000808281548110610a1557610a14611739565b5b90600052602060002090600a0201905060003411610a68576040517f08c379a0000000000000000000000000000000000000000000000000000000008152600401610a5f90611ce8565b60405180910390fd5b8060020154348260010154610a7d9190611b70565b1115610abe576040517f08c379a0000000000000000000000000000000000000000000000000000000008152600401610ab590611d54565b60405180910390fd5b34816001016000828254610ad29190611b70565b9250508190555080600901339080600181540180825580915050600190039060005260206000200160009091909190916101000a81548173ffffffffffffffffffffffffffffffffffffffff021916908373ffffffffffffffffffffffffffffffffffffffff1602179055505050565b610b4a610f00565b60008281548110610b5e57610b5d611739565b5b90600052602060002090600a020160405180610140016040529081600082015481526020016001820154815260200160028201548152602001600382015481526020016004820154815260200160058201548152602001600682018054610bc490611866565b80601f0160208091040260200160405190810160405280929190818152602001828054610bf090611866565b8015610c3d5780601f10610c1257610100808354040283529160200191610c3d565b820191906000526020600020905b815481529060010190602001808311610c2057829003601f168201915b50505050508152602001600782018054610c5690611866565b80601f0160208091040260200160405190810160405280929190818152602001828054610c8290611866565b8015610ccf5780601f10610ca457610100808354040283529160200191610ccf565b820191906000526020600020905b815481529060010190602001808311610cb257829003601f168201915b505050505081526020016008820160009054906101000a900473ffffffffffffffffffffffffffffffffffffffff1673ffffffffffffffffffffffffffffffffffffffff1673ffffffffffffffffffffffffffffffffffffffff16815260200160098201805480602002602001604051908101604052809291908181526020018280548015610db357602002820191906000526020600020905b8160009054906101000a900473ffffffffffffffffffffffffffffffffffffffff1673ffffffffffffffffffffffffffffffffffffffff1681526020019060010190808311610d69575b5050505050815250509050919050565b828054828255906000526020600020908101928215610e045760005260206000209182015b82811115610e03578254825591600101919060010190610de8565b5b509050610e119190610f69565b5090565b508054610e2190611866565b6000825580601f10610e335750610e52565b601f016020900490600052602060002090810190610e519190610f69565b5b50565b5080546000825590600052602060002090810190610e739190610f69565b50565b828054828255906000526020600020908101928215610eef579160200282015b82811115610eee5782518260006101000a81548173ffffffffffffffffffffffffffffffffffffffff021916908373ffffffffffffffffffffffffffffffffffffffff16021790555091602001919060010190610e96565b5b509050610efc9190610f69565b5090565b6040518061014001604052806000815260200160008152602001600081526020016000815260200160008152602001600081526020016060815260200160608152602001600073ffffffffffffffffffffffffffffffffffffffff168152602001606081525090565b5b80821115610f82576000816000905550600101610f6a565b5090565b6000604051905090565b600080fd5b600080fd5b6000819050919050565b610fad81610f9a565b8114610fb857600080fd5b50565b600081359050610fca81610fa4565b92915050565b600060208284031215610fe657610fe5610f90565b5b6000610ff484828501610fbb565b91505092915050565b600081519050919050565b600082825260208201905092915050565b6000819050602082019050919050565b61103281610f9a565b82525050565b600081519050919050565b600082825260208201905092915050565b60005b83811015611072578082015181840152602081019050611057565b60008484015250505050565b6000601f19601f8301169050919050565b600061109a82611038565b6110a48185611043565b93506110b4818560208601611054565b6110bd8161107e565b840191505092915050565b600073ffffffffffffffffffffffffffffffffffffffff82169050919050565b60006110f3826110c8565b9050919050565b611103816110e8565b82525050565b600081519050919050565b600082825260208201905092915050565b6000819050602082019050919050565b600061114183836110fa565b60208301905092915050565b6000602082019050919050565b600061116582611109565b61116f8185611114565b935061117a83611125565b8060005b838110156111ab5781516111928882611135565b975061119d8361114d565b92505060018101905061117e565b5085935050505092915050565b6000610140830160008301516111d16000860182611029565b5060208301516111e46020860182611029565b5060408301516111f76040860182611029565b50606083015161120a6060860182611029565b50608083015161121d6080860182611029565b5060a083015161123060a0860182611029565b5060c083015184820360c0860152611248828261108f565b91505060e083015184820360e0860152611262828261108f565b9150506101008301516112796101008601826110fa565b50610120830151848203610120860152611293828261115a565b9150508091505092915050565b60006112ac83836111b8565b905092915050565b6000602082019050919050565b60006112cc82610ffd565b6112d68185611008565b9350836020820285016112e885611019565b8060005b85811015611324578484038952815161130585826112a0565b9450611310836112b4565b925060208a019950506001810190506112ec565b50829750879550505050505092915050565b6000602082019050818103600083015261135081846112c1565b905092915050565b61136181610f9a565b82525050565b600082825260208201905092915050565b600061138382611038565b61138d8185611367565b935061139d818560208601611054565b6113a68161107e565b840191505092915050565b6113ba816110e8565b82525050565b6000610120820190506113d6600083018c611358565b6113e3602083018b611358565b6113f0604083018a611358565b6113fd6060830189611358565b61140a6080830188611358565b61141760a0830187611358565b81810360c08301526114298186611378565b905081810360e083015261143d8185611378565b905061144d6101008301846113b1565b9a9950505050505050505050565b600080fd5b600080fd5b7f4e487b7100000000000000000000000000000000000000000000000000000000600052604160045260246000fd5b61149d8261107e565b810181811067ffffffffffffffff821117156114bc576114bb611465565b5b80604052505050565b60006114cf610f86565b90506114db8282611494565b919050565b600067ffffffffffffffff8211156114fb576114fa611465565b5b6115048261107e565b9050602081019050919050565b82818337600083830152505050565b600061153361152e846114e0565b6114c5565b90508281526020810184848401111561154f5761154e611460565b5b61155a848285611511565b509392505050565b600082601f8301126115775761157661145b565b5b8135611587848260208601611520565b91505092915050565b600080600080608085870312156115aa576115a9610f90565b5b60006115b887828801610fbb565b94505060206115c987828801610fbb565b935050604085013567ffffffffffffffff8111156115ea576115e9610f95565b5b6115f687828801611562565b925050606085013567ffffffffffffffff81111561161757611616610f95565b5b61162387828801611562565b91505092959194509250565b6000610140830160008301516116486000860182611029565b50602083015161165b6020860182611029565b50604083015161166e6040860182611029565b5060608301516116816060860182611029565b5060808301516116946080860182611029565b5060a08301516116a760a0860182611029565b5060c083015184820360c08601526116bf828261108f565b91505060e083015184820360e08601526116d9828261108f565b9150506101008301516116f06101008601826110fa565b5061012083015184820361012086015261170a828261115a565b9150508091505092915050565b60006020820190508181036000830152611731818461162f565b905092915050565b7f4e487b7100000000000000000000000000000000000000000000000000000000600052603260045260246000fd5b7f4f6e6c792063726561746f722063616e2064656c6574652063616d706169676e600082015250565b600061179e602083611367565b91506117a982611768565b602082019050919050565b600060208201905081810360008301526117cd81611791565b9050919050565b7f4e487b7100000000000000000000000000000000000000000000000000000000600052601160045260246000fd5b600061180e82610f9a565b915061181983610f9a565b9250828203905081811115611831576118306117d4565b5b92915050565b7f4e487b7100000000000000000000000000000000000000000000000000000000600052602260045260246000fd5b6000600282049050600182168061187e57607f821691505b60208210810361189157611890611837565b5b50919050565b6000815490506118a681611866565b9050919050565b60008190508160005260206000209050919050565b60006020601f8301049050919050565b600082821b905092915050565b60006008830261190f7fffffffffffffffffffffffffffffffffffffffffffffffffffffffffffffffff826118d2565b61191986836118d2565b95508019841693508086168417925050509392505050565b6000819050919050565b600061195661195161194c84610f9a565b611931565b610f9a565b9050919050565b6000819050919050565b6119708361193b565b61198461197c8261195d565b8484546118df565b825550505050565b600090565b61199961198c565b6119a4818484611967565b505050565b5b818110156119c8576119bd600082611991565b6001810190506119aa565b5050565b601f821115611a0d576119de816118ad565b6119e7846118c2565b810160208510156119f6578190505b611a0a611a02856118c2565b8301826119a9565b50505b505050565b600082821c905092915050565b6000611a3060001984600802611a12565b1980831691505092915050565b6000611a498383611a1f565b9150826002028217905092915050565b818103611a67575050611b3f565b611a7082611897565b67ffffffffffffffff811115611a8957611a88611465565b5b611a938254611866565b611a9e8282856119cc565b6000601f831160018114611acd5760008415611abb578287015490505b611ac58582611a3d565b865550611b38565b601f198416611adb876118ad565b9650611ae6866118ad565b60005b82811015611b0e57848901548255600182019150600185019450602081019050611ae9565b86831015611b2b5784890154611b27601f891682611a1f565b8355505b6001600288020188555050505b5050505050505b565b7f4e487b7100000000000000000000000000000000000000000000000000000000600052603160045260246000fd5b6000611b7b82610f9a565b9150611b8683610f9a565b9250828201905080821115611b9e57611b9d6117d4565b5b92915050565b611bad82611038565b67ffffffffffffffff811115611bc657611bc5611465565b5b611bd08254611866565b611bdb8282856119cc565b600060209050601f831160018114611c0e5760008415611bfc578287015190505b611c068582611a3d565b865550611c6e565b601f198416611c1c866118ad565b60005b82811015611c4457848901518255600182019150602085019450602081019050611c1f565b86831015611c615784890151611c5d601f891682611a1f565b8355505b6001600288020188555050505b505050505050565b7f46756e64696e6720616d6f756e74206d7573742062652067726561746572207460008201527f68616e2030000000000000000000000000000000000000000000000000000000602082015250565b6000611cd2602583611367565b9150611cdd82611c76565b604082019050919050565b60006020820190508181036000830152611d0181611cc5565b9050919050565b7f43616d706169676e20676f616c20657863656564656400000000000000000000600082015250565b6000611d3e601683611367565b9150611d4982611d08565b602082019050919050565b60006020820190508181036000830152611d6d81611d31565b905091905056fea26469706673582212208ea304bb74a2c42b35bb2e81dbf0f7e442a9f77229a7b7223cb4a8251530c5de64736f6c63430008140033",
  "linkReferences": {},
  "deployedLinkReferences": {}
}