{
  "_format": "hh-sol-artifact-1",
  "contractName": "Funding",
  "sourceName": "contracts/Funding.sol",
  "abi": [
    {
      "inputs": [
        {
          "internalType": "uint256",
          "name": "",
          "type": "uint256"
        }
      ],
      "name": "allCampaigns",
      "outputs": [
        {
          "internalType": "uint256",
          "name": "amount",
          "type": "uint256"
        },
        {
          "internalType": "uint256",
          "name": "goal",
          "type": "uint256"
        },
        {
          "internalType": "uint256",
          "name": "deadline",
          "type": "uint256"
        },
        {
          "internalType": "uint256",
          "name": "start",
          "type": "uint256"
        },
        {
          "internalType": "uint256",
          "name": "end",
          "type": "uint256"
        },
        {
          "internalType": "string",
          "name": "name",
          "type": "string"
        },
        {
          "internalType": "address",
          "name": "creator",
          "type": "address"
        }
      ],
      "stateMutability": "view",
      "type": "function"
    },
    {
      "inputs": [
        {
          "internalType": "uint256",
          "name": "_goal",
          "type": "uint256"
        },
        {
          "internalType": "uint256",
          "name": "_deadline",
          "type": "uint256"
        },
        {
          "internalType": "string",
          "name": "_name",
          "type": "string"
        }
      ],
      "name": "createCampaign",
      "outputs": [],
      "stateMutability": "payable",
      "type": "function"
    },
    {
      "inputs": [
        {
          "internalType": "uint256",
          "name": "_campaignIndex",
          "type": "uint256"
        }
      ],
      "name": "fund",
      "outputs": [],
      "stateMutability": "payable",
      "type": "function"
    },
    {
      "inputs": [],
      "name": "getAllCampaigns",
      "outputs": [
        {
          "components": [
            {
              "internalType": "uint256",
              "name": "amount",
              "type": "uint256"
            },
            {
              "internalType": "uint256",
              "name": "goal",
              "type": "uint256"
            },
            {
              "internalType": "uint256",
              "name": "deadline",
              "type": "uint256"
            },
            {
              "internalType": "uint256",
              "name": "start",
              "type": "uint256"
            },
            {
              "internalType": "uint256",
              "name": "end",
              "type": "uint256"
            },
            {
              "internalType": "string",
              "name": "name",
              "type": "string"
            },
            {
              "internalType": "address",
              "name": "creator",
              "type": "address"
            }
          ],
          "internalType": "struct Funding.Campaign[]",
          "name": "",
          "type": "tuple[]"
        }
      ],
      "stateMutability": "view",
      "type": "function"
    },
    {
      "inputs": [
        {
          "internalType": "uint256",
          "name": "_campaignIndex",
          "type": "uint256"
        }
      ],
      "name": "getCampaignDetails",
      "outputs": [
        {
          "components": [
            {
              "internalType": "uint256",
              "name": "amount",
              "type": "uint256"
            },
            {
              "internalType": "uint256",
              "name": "goal",
              "type": "uint256"
            },
            {
              "internalType": "uint256",
              "name": "deadline",
              "type": "uint256"
            },
            {
              "internalType": "uint256",
              "name": "start",
              "type": "uint256"
            },
            {
              "internalType": "uint256",
              "name": "end",
              "type": "uint256"
            },
            {
              "internalType": "string",
              "name": "name",
              "type": "string"
            },
            {
              "internalType": "address",
              "name": "creator",
              "type": "address"
            }
          ],
          "internalType": "struct Funding.Campaign",
          "name": "",
          "type": "tuple"
        }
      ],
      "stateMutability": "view",
      "type": "function"
    }
  ],
  "bytecode": "0x608060405234801561001057600080fd5b50611202806100206000396000f3fe60806040526004361061004a5760003560e01c806386cdf6041461004f57806391cbf44e1461007a578063a509f4d114610096578063ca1d209d146100d9578063d993de62146100f5575b600080fd5b34801561005b57600080fd5b50610064610132565b604051610071919061098f565b60405180910390f35b610094600480360381019061008f9190610b26565b6102ab565b005b3480156100a257600080fd5b506100bd60048036038101906100b89190610b95565b6103c7565b6040516100d09796959493929190610c2a565b60405180910390f35b6100f360048036038101906100ee9190610b95565b6104c1565b005b34801561010157600080fd5b5061011c60048036038101906101179190610b95565b61059e565b6040516101299190610d3c565b60405180910390f35b60606000805480602002602001604051908101604052809291908181526020016000905b828210156102a257838290600052602060002090600702016040518060e001604052908160008201548152602001600182015481526020016002820154815260200160038201548152602001600482015481526020016005820180546101bb90610d8d565b80601f01602080910402602001604051908101604052809291908181526020018280546101e790610d8d565b80156102345780601f1061020957610100808354040283529160200191610234565b820191906000526020600020905b81548152906001019060200180831161021757829003601f168201915b505050505081526020016006820160009054906101000a900473ffffffffffffffffffffffffffffffffffffffff1673ffffffffffffffffffffffffffffffffffffffff1673ffffffffffffffffffffffffffffffffffffffff168152505081526020019060010190610156565b50505050905090565b60006040518060e001604052806000815260200185815260200184815260200142815260200184426102dd9190610ded565b81526020018381526020013373ffffffffffffffffffffffffffffffffffffffff1681525090506000819080600181540180825580915050600190039060005260206000209060070201600090919091909150600082015181600001556020820151816001015560408201518160020155606082015181600301556080820151816004015560a08201518160050190816103779190610fcd565b5060c08201518160060160006101000a81548173ffffffffffffffffffffffffffffffffffffffff021916908373ffffffffffffffffffffffffffffffffffffffff160217905550505050505050565b600081815481106103d757600080fd5b906000526020600020906007020160009150905080600001549080600101549080600201549080600301549080600401549080600501805461041890610d8d565b80601f016020809104026020016040519081016040528092919081815260200182805461044490610d8d565b80156104915780601f1061046657610100808354040283529160200191610491565b820191906000526020600020905b81548152906001019060200180831161047457829003601f168201915b5050505050908060060160009054906101000a900473ffffffffffffffffffffffffffffffffffffffff16905087565b60008082815481106104d6576104d561109f565b5b9060005260206000209060070201905060003411610529576040517f08c379a000000000000000000000000000000000000000000000000000000000815260040161052090611140565b60405180910390fd5b806001015434826000015461053e9190610ded565b111561057f576040517f08c379a0000000000000000000000000000000000000000000000000000000008152600401610576906111ac565b60405180910390fd5b348160000160008282546105939190610ded565b925050819055505050565b6105a66106f4565b600082815481106105ba576105b961109f565b5b90600052602060002090600702016040518060e0016040529081600082015481526020016001820154815260200160028201548152602001600382015481526020016004820154815260200160058201805461061590610d8d565b80601f016020809104026020016040519081016040528092919081815260200182805461064190610d8d565b801561068e5780601f106106635761010080835404028352916020019161068e565b820191906000526020600020905b81548152906001019060200180831161067157829003601f168201915b505050505081526020016006820160009054906101000a900473ffffffffffffffffffffffffffffffffffffffff1673ffffffffffffffffffffffffffffffffffffffff1673ffffffffffffffffffffffffffffffffffffffff16815250509050919050565b6040518060e00160405280600081526020016000815260200160008152602001600081526020016000815260200160608152602001600073ffffffffffffffffffffffffffffffffffffffff1681525090565b600081519050919050565b600082825260208201905092915050565b6000819050602082019050919050565b6000819050919050565b61078681610773565b82525050565b600081519050919050565b600082825260208201905092915050565b60005b838110156107c65780820151818401526020810190506107ab565b60008484015250505050565b6000601f19601f8301169050919050565b60006107ee8261078c565b6107f88185610797565b93506108088185602086016107a8565b610811816107d2565b840191505092915050565b600073ffffffffffffffffffffffffffffffffffffffff82169050919050565b60006108478261081c565b9050919050565b6108578161083c565b82525050565b600060e083016000830151610875600086018261077d565b506020830151610888602086018261077d565b50604083015161089b604086018261077d565b5060608301516108ae606086018261077d565b5060808301516108c1608086018261077d565b5060a083015184820360a08601526108d982826107e3565b91505060c08301516108ee60c086018261084e565b508091505092915050565b6000610905838361085d565b905092915050565b6000602082019050919050565b600061092582610747565b61092f8185610752565b93508360208202850161094185610763565b8060005b8581101561097d578484038952815161095e85826108f9565b94506109698361090d565b925060208a01995050600181019050610945565b50829750879550505050505092915050565b600060208201905081810360008301526109a9818461091a565b905092915050565b6000604051905090565b600080fd5b600080fd5b6109ce81610773565b81146109d957600080fd5b50565b6000813590506109eb816109c5565b92915050565b600080fd5b600080fd5b7f4e487b7100000000000000000000000000000000000000000000000000000000600052604160045260246000fd5b610a33826107d2565b810181811067ffffffffffffffff82111715610a5257610a516109fb565b5b80604052505050565b6000610a656109b1565b9050610a718282610a2a565b919050565b600067ffffffffffffffff821115610a9157610a906109fb565b5b610a9a826107d2565b9050602081019050919050565b82818337600083830152505050565b6000610ac9610ac484610a76565b610a5b565b905082815260208101848484011115610ae557610ae46109f6565b5b610af0848285610aa7565b509392505050565b600082601f830112610b0d57610b0c6109f1565b5b8135610b1d848260208601610ab6565b91505092915050565b600080600060608486031215610b3f57610b3e6109bb565b5b6000610b4d868287016109dc565b9350506020610b5e868287016109dc565b925050604084013567ffffffffffffffff811115610b7f57610b7e6109c0565b5b610b8b86828701610af8565b9150509250925092565b600060208284031215610bab57610baa6109bb565b5b6000610bb9848285016109dc565b91505092915050565b610bcb81610773565b82525050565b600082825260208201905092915050565b6000610bed8261078c565b610bf78185610bd1565b9350610c078185602086016107a8565b610c10816107d2565b840191505092915050565b610c248161083c565b82525050565b600060e082019050610c3f600083018a610bc2565b610c4c6020830189610bc2565b610c596040830188610bc2565b610c666060830187610bc2565b610c736080830186610bc2565b81810360a0830152610c858185610be2565b9050610c9460c0830184610c1b565b98975050505050505050565b600060e083016000830151610cb8600086018261077d565b506020830151610ccb602086018261077d565b506040830151610cde604086018261077d565b506060830151610cf1606086018261077d565b506080830151610d04608086018261077d565b5060a083015184820360a0860152610d1c82826107e3565b91505060c0830151610d3160c086018261084e565b508091505092915050565b60006020820190508181036000830152610d568184610ca0565b905092915050565b7f4e487b7100000000000000000000000000000000000000000000000000000000600052602260045260246000fd5b60006002820490506001821680610da557607f821691505b602082108103610db857610db7610d5e565b5b50919050565b7f4e487b7100000000000000000000000000000000000000000000000000000000600052601160045260246000fd5b6000610df882610773565b9150610e0383610773565b9250828201905080821115610e1b57610e1a610dbe565b5b92915050565b60008190508160005260206000209050919050565b60006020601f8301049050919050565b600082821b905092915050565b600060088302610e837fffffffffffffffffffffffffffffffffffffffffffffffffffffffffffffffff82610e46565b610e8d8683610e46565b95508019841693508086168417925050509392505050565b6000819050919050565b6000610eca610ec5610ec084610773565b610ea5565b610773565b9050919050565b6000819050919050565b610ee483610eaf565b610ef8610ef082610ed1565b848454610e53565b825550505050565b600090565b610f0d610f00565b610f18818484610edb565b505050565b5b81811015610f3c57610f31600082610f05565b600181019050610f1e565b5050565b601f821115610f8157610f5281610e21565b610f5b84610e36565b81016020851015610f6a578190505b610f7e610f7685610e36565b830182610f1d565b50505b505050565b600082821c905092915050565b6000610fa460001984600802610f86565b1980831691505092915050565b6000610fbd8383610f93565b9150826002028217905092915050565b610fd68261078c565b67ffffffffffffffff811115610fef57610fee6109fb565b5b610ff98254610d8d565b611004828285610f40565b600060209050601f8311600181146110375760008415611025578287015190505b61102f8582610fb1565b865550611097565b601f19841661104586610e21565b60005b8281101561106d57848901518255600182019150602085019450602081019050611048565b8683101561108a5784890151611086601f891682610f93565b8355505b6001600288020188555050505b505050505050565b7f4e487b7100000000000000000000000000000000000000000000000000000000600052603260045260246000fd5b7f46756e64696e6720616d6f756e74206d7573742062652067726561746572207460008201527f68616e2030000000000000000000000000000000000000000000000000000000602082015250565b600061112a602583610bd1565b9150611135826110ce565b604082019050919050565b600060208201905081810360008301526111598161111d565b9050919050565b7f43616d706169676e20676f616c20657863656564656400000000000000000000600082015250565b6000611196601683610bd1565b91506111a182611160565b602082019050919050565b600060208201905081810360008301526111c581611189565b905091905056fea2646970667358221220adfd21d793840b1590a1a12c9809936285fae6ad85aa0cfdfcfa8179f980bbc064736f6c63430008140033",
  "linkReferences": {},
  "deployedLinkReferences": {}
}