{
  "_format": "hh-sol-artifact-1",
  "contractName": "Funding",
  "sourceName": "contracts/Funding.sol",
  "abi": [
    {
      "inputs": [
        {
          "internalType": "uint256",
          "name": "",
          "type": "uint256"
        }
      ],
      "name": "allCampaigns",
      "outputs": [
        {
          "internalType": "uint256",
          "name": "id",
          "type": "uint256"
        },
        {
          "internalType": "uint256",
          "name": "amount",
          "type": "uint256"
        },
        {
          "internalType": "uint256",
          "name": "goal",
          "type": "uint256"
        },
        {
          "internalType": "uint256",
          "name": "deadline",
          "type": "uint256"
        },
        {
          "internalType": "uint256",
          "name": "start",
          "type": "uint256"
        },
        {
          "internalType": "uint256",
          "name": "end",
          "type": "uint256"
        },
        {
          "internalType": "string",
          "name": "name",
          "type": "string"
        },
        {
          "internalType": "string",
          "name": "description",
          "type": "string"
        },
        {
          "internalType": "address",
          "name": "creator",
          "type": "address"
        }
      ],
      "stateMutability": "view",
      "type": "function"
    },
    {
      "inputs": [
        {
          "internalType": "uint256",
          "name": "_goal",
          "type": "uint256"
        },
        {
          "internalType": "uint256",
          "name": "_deadline",
          "type": "uint256"
        },
        {
          "internalType": "string",
          "name": "_name",
          "type": "string"
        },
        {
          "internalType": "string",
          "name": "_description",
          "type": "string"
        }
      ],
      "name": "createCampaign",
      "outputs": [],
      "stateMutability": "payable",
      "type": "function"
    },
    {
      "inputs": [
        {
          "internalType": "uint256",
          "name": "id",
          "type": "uint256"
        }
      ],
      "name": "deleteCampaign",
      "outputs": [],
      "stateMutability": "nonpayable",
      "type": "function"
    },
    {
      "inputs": [
        {
          "internalType": "uint256",
          "name": "id",
          "type": "uint256"
        }
      ],
      "name": "fund",
      "outputs": [],
      "stateMutability": "payable",
      "type": "function"
    },
    {
      "inputs": [],
      "name": "getAllCampaigns",
      "outputs": [
        {
          "components": [
            {
              "internalType": "uint256",
              "name": "id",
              "type": "uint256"
            },
            {
              "internalType": "uint256",
              "name": "amount",
              "type": "uint256"
            },
            {
              "internalType": "uint256",
              "name": "goal",
              "type": "uint256"
            },
            {
              "internalType": "uint256",
              "name": "deadline",
              "type": "uint256"
            },
            {
              "internalType": "uint256",
              "name": "start",
              "type": "uint256"
            },
            {
              "internalType": "uint256",
              "name": "end",
              "type": "uint256"
            },
            {
              "internalType": "string",
              "name": "name",
              "type": "string"
            },
            {
              "internalType": "string",
              "name": "description",
              "type": "string"
            },
            {
              "internalType": "address",
              "name": "creator",
              "type": "address"
            }
          ],
          "internalType": "struct Funding.Campaign[]",
          "name": "",
          "type": "tuple[]"
        }
      ],
      "stateMutability": "view",
      "type": "function"
    },
    {
      "inputs": [
        {
          "internalType": "uint256",
          "name": "id",
          "type": "uint256"
        }
      ],
      "name": "getCampaignDetails",
      "outputs": [
        {
          "components": [
            {
              "internalType": "uint256",
              "name": "id",
              "type": "uint256"
            },
            {
              "internalType": "uint256",
              "name": "amount",
              "type": "uint256"
            },
            {
              "internalType": "uint256",
              "name": "goal",
              "type": "uint256"
            },
            {
              "internalType": "uint256",
              "name": "deadline",
              "type": "uint256"
            },
            {
              "internalType": "uint256",
              "name": "start",
              "type": "uint256"
            },
            {
              "internalType": "uint256",
              "name": "end",
              "type": "uint256"
            },
            {
              "internalType": "string",
              "name": "name",
              "type": "string"
            },
            {
              "internalType": "string",
              "name": "description",
              "type": "string"
            },
            {
              "internalType": "address",
              "name": "creator",
              "type": "address"
            }
          ],
          "internalType": "struct Funding.Campaign",
          "name": "",
          "type": "tuple"
        }
      ],
      "stateMutability": "view",
      "type": "function"
    }
  ],
  "bytecode": "0x608060405234801561001057600080fd5b506119aa806100206000396000f3fe6080604052600436106100555760003560e01c8063759701931461005a57806386cdf60414610083578063a509f4d1146100ae578063b63e0eb0146100f3578063ca1d209d1461010f578063d993de621461012b575b600080fd5b34801561006657600080fd5b50610081600480360381019061007c9190610cb7565b610168565b005b34801561008f57600080fd5b506100986103ea565b6040516100a59190610f52565b60405180910390f35b3480156100ba57600080fd5b506100d560048036038101906100d09190610cb7565b610600565b6040516100ea99989796959493929190610fdc565b60405180910390f35b61010d600480360381019061010891906111ac565b61078e565b005b61012960048036038101906101249190610cb7565b6108de565b005b34801561013757600080fd5b50610152600480360381019061014d9190610cb7565b6109bb565b60405161015f9190611317565b60405180910390f35b600080828154811061017d5761017c611339565b5b906000526020600020906009020190508060080160009054906101000a900473ffffffffffffffffffffffffffffffffffffffff1673ffffffffffffffffffffffffffffffffffffffff163373ffffffffffffffffffffffffffffffffffffffff161461021f576040517f08c379a0000000000000000000000000000000000000000000000000000000008152600401610216906113b4565b60405180910390fd5b600060016000805490506102339190611403565b8154811061024457610243611339565b5b90600052602060002090600902016000838154811061026657610265611339565b5b9060005260206000209060090201600082015481600001556001820154816001015560028201548160020155600382015481600301556004820154816004015560058201548160050155600682018160060190816102c49190611659565b50600782018160070190816102d99190611659565b506008820160009054906101000a900473ffffffffffffffffffffffffffffffffffffffff168160080160006101000a81548173ffffffffffffffffffffffffffffffffffffffff021916908373ffffffffffffffffffffffffffffffffffffffff160217905550905050600080548061035657610355611741565b5b6001900381819060005260206000209060090201600080820160009055600182016000905560028201600090556003820160009055600482016000905560058201600090556006820160006103ab9190610bae565b6007820160006103bb9190610bae565b6008820160006101000a81549073ffffffffffffffffffffffffffffffffffffffff0219169055505090555050565b60606000805480602002602001604051908101604052809291908181526020016000905b828210156105f757838290600052602060002090600902016040518061012001604052908160008201548152602001600182015481526020016002820154815260200160038201548152602001600482015481526020016005820154815260200160068201805461047e90611466565b80601f01602080910402602001604051908101604052809291908181526020018280546104aa90611466565b80156104f75780601f106104cc576101008083540402835291602001916104f7565b820191906000526020600020905b8154815290600101906020018083116104da57829003601f168201915b5050505050815260200160078201805461051090611466565b80601f016020809104026020016040519081016040528092919081815260200182805461053c90611466565b80156105895780601f1061055e57610100808354040283529160200191610589565b820191906000526020600020905b81548152906001019060200180831161056c57829003601f168201915b505050505081526020016008820160009054906101000a900473ffffffffffffffffffffffffffffffffffffffff1673ffffffffffffffffffffffffffffffffffffffff1673ffffffffffffffffffffffffffffffffffffffff16815250508152602001906001019061040e565b50505050905090565b6000818154811061061057600080fd5b906000526020600020906009020160009150905080600001549080600101549080600201549080600301549080600401549080600501549080600601805461065790611466565b80601f016020809104026020016040519081016040528092919081815260200182805461068390611466565b80156106d05780601f106106a5576101008083540402835291602001916106d0565b820191906000526020600020905b8154815290600101906020018083116106b357829003601f168201915b5050505050908060070180546106e590611466565b80601f016020809104026020016040519081016040528092919081815260200182805461071190611466565b801561075e5780601f106107335761010080835404028352916020019161075e565b820191906000526020600020905b81548152906001019060200180831161074157829003601f168201915b5050505050908060080160009054906101000a900473ffffffffffffffffffffffffffffffffffffffff16905089565b600060405180610120016040528060008054905081526020016000815260200186815260200185815260200142815260200185426107cc9190611770565b81526020018481526020018381526020013373ffffffffffffffffffffffffffffffffffffffff1681525090506000819080600181540180825580915050600190039060005260206000209060090201600090919091909150600082015181600001556020820151816001015560408201518160020155606082015181600301556080820151816004015560a0820151816005015560c082015181600601908161087691906117a4565b5060e082015181600701908161088c91906117a4565b506101008201518160080160006101000a81548173ffffffffffffffffffffffffffffffffffffffff021916908373ffffffffffffffffffffffffffffffffffffffff16021790555050505050505050565b60008082815481106108f3576108f2611339565b5b9060005260206000209060090201905060003411610946576040517f08c379a000000000000000000000000000000000000000000000000000000000815260040161093d906118e8565b60405180910390fd5b806002015434826001015461095b9190611770565b111561099c576040517f08c379a000000000000000000000000000000000000000000000000000000000815260040161099390611954565b60405180910390fd5b348160010160008282546109b09190611770565b925050819055505050565b6109c3610bee565b600082815481106109d7576109d6611339565b5b906000526020600020906009020160405180610120016040529081600082015481526020016001820154815260200160028201548152602001600382015481526020016004820154815260200160058201548152602001600682018054610a3d90611466565b80601f0160208091040260200160405190810160405280929190818152602001828054610a6990611466565b8015610ab65780601f10610a8b57610100808354040283529160200191610ab6565b820191906000526020600020905b815481529060010190602001808311610a9957829003601f168201915b50505050508152602001600782018054610acf90611466565b80601f0160208091040260200160405190810160405280929190818152602001828054610afb90611466565b8015610b485780601f10610b1d57610100808354040283529160200191610b48565b820191906000526020600020905b815481529060010190602001808311610b2b57829003601f168201915b505050505081526020016008820160009054906101000a900473ffffffffffffffffffffffffffffffffffffffff1673ffffffffffffffffffffffffffffffffffffffff1673ffffffffffffffffffffffffffffffffffffffff16815250509050919050565b508054610bba90611466565b6000825580601f10610bcc5750610beb565b601f016020900490600052602060002090810190610bea9190610c50565b5b50565b6040518061012001604052806000815260200160008152602001600081526020016000815260200160008152602001600081526020016060815260200160608152602001600073ffffffffffffffffffffffffffffffffffffffff1681525090565b5b80821115610c69576000816000905550600101610c51565b5090565b6000604051905090565b600080fd5b600080fd5b6000819050919050565b610c9481610c81565b8114610c9f57600080fd5b50565b600081359050610cb181610c8b565b92915050565b600060208284031215610ccd57610ccc610c77565b5b6000610cdb84828501610ca2565b91505092915050565b600081519050919050565b600082825260208201905092915050565b6000819050602082019050919050565b610d1981610c81565b82525050565b600081519050919050565b600082825260208201905092915050565b60005b83811015610d59578082015181840152602081019050610d3e565b60008484015250505050565b6000601f19601f8301169050919050565b6000610d8182610d1f565b610d8b8185610d2a565b9350610d9b818560208601610d3b565b610da481610d65565b840191505092915050565b600073ffffffffffffffffffffffffffffffffffffffff82169050919050565b6000610dda82610daf565b9050919050565b610dea81610dcf565b82525050565b600061012083016000830151610e096000860182610d10565b506020830151610e1c6020860182610d10565b506040830151610e2f6040860182610d10565b506060830151610e426060860182610d10565b506080830151610e556080860182610d10565b5060a0830151610e6860a0860182610d10565b5060c083015184820360c0860152610e808282610d76565b91505060e083015184820360e0860152610e9a8282610d76565b915050610100830151610eb1610100860182610de1565b508091505092915050565b6000610ec88383610df0565b905092915050565b6000602082019050919050565b6000610ee882610ce4565b610ef28185610cef565b935083602082028501610f0485610d00565b8060005b85811015610f405784840389528151610f218582610ebc565b9450610f2c83610ed0565b925060208a01995050600181019050610f08565b50829750879550505050505092915050565b60006020820190508181036000830152610f6c8184610edd565b905092915050565b610f7d81610c81565b82525050565b600082825260208201905092915050565b6000610f9f82610d1f565b610fa98185610f83565b9350610fb9818560208601610d3b565b610fc281610d65565b840191505092915050565b610fd681610dcf565b82525050565b600061012082019050610ff2600083018c610f74565b610fff602083018b610f74565b61100c604083018a610f74565b6110196060830189610f74565b6110266080830188610f74565b61103360a0830187610f74565b81810360c08301526110458186610f94565b905081810360e08301526110598185610f94565b9050611069610100830184610fcd565b9a9950505050505050505050565b600080fd5b600080fd5b7f4e487b7100000000000000000000000000000000000000000000000000000000600052604160045260246000fd5b6110b982610d65565b810181811067ffffffffffffffff821117156110d8576110d7611081565b5b80604052505050565b60006110eb610c6d565b90506110f782826110b0565b919050565b600067ffffffffffffffff82111561111757611116611081565b5b61112082610d65565b9050602081019050919050565b82818337600083830152505050565b600061114f61114a846110fc565b6110e1565b90508281526020810184848401111561116b5761116a61107c565b5b61117684828561112d565b509392505050565b600082601f83011261119357611192611077565b5b81356111a384826020860161113c565b91505092915050565b600080600080608085870312156111c6576111c5610c77565b5b60006111d487828801610ca2565b94505060206111e587828801610ca2565b935050604085013567ffffffffffffffff81111561120657611205610c7c565b5b6112128782880161117e565b925050606085013567ffffffffffffffff81111561123357611232610c7c565b5b61123f8782880161117e565b91505092959194509250565b6000610120830160008301516112646000860182610d10565b5060208301516112776020860182610d10565b50604083015161128a6040860182610d10565b50606083015161129d6060860182610d10565b5060808301516112b06080860182610d10565b5060a08301516112c360a0860182610d10565b5060c083015184820360c08601526112db8282610d76565b91505060e083015184820360e08601526112f58282610d76565b91505061010083015161130c610100860182610de1565b508091505092915050565b60006020820190508181036000830152611331818461124b565b905092915050565b7f4e487b7100000000000000000000000000000000000000000000000000000000600052603260045260246000fd5b7f4f6e6c792063726561746f722063616e2064656c6574652063616d706169676e600082015250565b600061139e602083610f83565b91506113a982611368565b602082019050919050565b600060208201905081810360008301526113cd81611391565b9050919050565b7f4e487b7100000000000000000000000000000000000000000000000000000000600052601160045260246000fd5b600061140e82610c81565b915061141983610c81565b9250828203905081811115611431576114306113d4565b5b92915050565b7f4e487b7100000000000000000000000000000000000000000000000000000000600052602260045260246000fd5b6000600282049050600182168061147e57607f821691505b60208210810361149157611490611437565b5b50919050565b6000815490506114a681611466565b9050919050565b60008190508160005260206000209050919050565b60006020601f8301049050919050565b600082821b905092915050565b60006008830261150f7fffffffffffffffffffffffffffffffffffffffffffffffffffffffffffffffff826114d2565b61151986836114d2565b95508019841693508086168417925050509392505050565b6000819050919050565b600061155661155161154c84610c81565b611531565b610c81565b9050919050565b6000819050919050565b6115708361153b565b61158461157c8261155d565b8484546114df565b825550505050565b600090565b61159961158c565b6115a4818484611567565b505050565b5b818110156115c8576115bd600082611591565b6001810190506115aa565b5050565b601f82111561160d576115de816114ad565b6115e7846114c2565b810160208510156115f6578190505b61160a611602856114c2565b8301826115a9565b50505b505050565b600082821c905092915050565b600061163060001984600802611612565b1980831691505092915050565b6000611649838361161f565b9150826002028217905092915050565b81810361166757505061173f565b61167082611497565b67ffffffffffffffff81111561168957611688611081565b5b6116938254611466565b61169e8282856115cc565b6000601f8311600181146116cd57600084156116bb578287015490505b6116c5858261163d565b865550611738565b601f1984166116db876114ad565b96506116e6866114ad565b60005b8281101561170e578489015482556001820191506001850194506020810190506116e9565b8683101561172b5784890154611727601f89168261161f565b8355505b6001600288020188555050505b5050505050505b565b7f4e487b7100000000000000000000000000000000000000000000000000000000600052603160045260246000fd5b600061177b82610c81565b915061178683610c81565b925082820190508082111561179e5761179d6113d4565b5b92915050565b6117ad82610d1f565b67ffffffffffffffff8111156117c6576117c5611081565b5b6117d08254611466565b6117db8282856115cc565b600060209050601f83116001811461180e57600084156117fc578287015190505b611806858261163d565b86555061186e565b601f19841661181c866114ad565b60005b828110156118445784890151825560018201915060208501945060208101905061181f565b86831015611861578489015161185d601f89168261161f565b8355505b6001600288020188555050505b505050505050565b7f46756e64696e6720616d6f756e74206d7573742062652067726561746572207460008201527f68616e2030000000000000000000000000000000000000000000000000000000602082015250565b60006118d2602583610f83565b91506118dd82611876565b604082019050919050565b60006020820190508181036000830152611901816118c5565b9050919050565b7f43616d706169676e20676f616c20657863656564656400000000000000000000600082015250565b600061193e601683610f83565b915061194982611908565b602082019050919050565b6000602082019050818103600083015261196d81611931565b905091905056fea264697066735822122073bd0fd7a5cb6e430f91d347deaa4c9e78626e5a3b3a3c7716f74f59df82845164736f6c63430008140033",
  "linkReferences": {},
  "deployedLinkReferences": {}
}